{
	"_format": "hh-sol-artifact-1",
	"contractName": "NFTMarketplace",
	"sourceName": "contracts/NFTMarketplace.sol",
	"abi": [
		{
			"inputs": [],
			"stateMutability": "nonpayable",
			"type": "constructor"
		},
		{
			"anonymous": false,
			"inputs": [
				{
					"indexed": true,
					"internalType": "address",
					"name": "owner",
					"type": "address"
				},
				{
					"indexed": true,
					"internalType": "address",
					"name": "approved",
					"type": "address"
				},
				{
					"indexed": true,
					"internalType": "uint256",
					"name": "tokenId",
					"type": "uint256"
				}
			],
			"name": "Approval",
			"type": "event"
		},
		{
			"anonymous": false,
			"inputs": [
				{
					"indexed": true,
					"internalType": "address",
					"name": "owner",
					"type": "address"
				},
				{
					"indexed": true,
					"internalType": "address",
					"name": "operator",
					"type": "address"
				},
				{
					"indexed": false,
					"internalType": "bool",
					"name": "approved",
					"type": "bool"
				}
			],
			"name": "ApprovalForAll",
			"type": "event"
		},
		{
			"anonymous": false,
			"inputs": [
				{
					"indexed": true,
					"internalType": "uint256",
					"name": "tokenId",
					"type": "uint256"
				},
				{
					"indexed": false,
					"internalType": "address",
					"name": "seller",
					"type": "address"
				},
				{
					"indexed": false,
					"internalType": "address",
					"name": "owner",
					"type": "address"
				},
				{
					"indexed": false,
					"internalType": "uint256",
					"name": "price",
					"type": "uint256"
				},
				{
					"indexed": false,
					"internalType": "bool",
					"name": "sold",
					"type": "bool"
				}
			],
			"name": "MarketItemCreated",
			"type": "event"
		},
		{
			"anonymous": false,
			"inputs": [
				{
					"indexed": true,
					"internalType": "address",
					"name": "from",
					"type": "address"
				},
				{
					"indexed": true,
					"internalType": "address",
					"name": "to",
					"type": "address"
				},
				{
					"indexed": true,
					"internalType": "uint256",
					"name": "tokenId",
					"type": "uint256"
				}
			],
			"name": "Transfer",
			"type": "event"
		},
		{
			"inputs": [
				{
					"internalType": "address",
					"name": "to",
					"type": "address"
				},
				{
					"internalType": "uint256",
					"name": "tokenId",
					"type": "uint256"
				}
			],
			"name": "approve",
			"outputs": [],
			"stateMutability": "nonpayable",
			"type": "function"
		},
		{
			"inputs": [
				{
					"internalType": "address",
					"name": "owner",
					"type": "address"
				}
			],
			"name": "balanceOf",
			"outputs": [
				{
					"internalType": "uint256",
					"name": "",
					"type": "uint256"
				}
			],
			"stateMutability": "view",
			"type": "function"
		},
		{
			"inputs": [
				{
					"internalType": "uint256",
					"name": "_tokenId",
					"type": "uint256"
				}
			],
			"name": "createMarketSale",
			"outputs": [],
			"stateMutability": "payable",
			"type": "function"
		},
		{
			"inputs": [
				{
					"internalType": "string",
					"name": "_tokenURI",
					"type": "string"
				},
				{
					"internalType": "uint256",
					"name": "_price",
					"type": "uint256"
				}
			],
			"name": "createToken",
			"outputs": [
				{
					"internalType": "uint256",
					"name": "",
					"type": "uint256"
				}
			],
			"stateMutability": "payable",
			"type": "function"
		},
		{
			"inputs": [],
			"name": "fetchItemsListed",
			"outputs": [
				{
					"components": [
						{
							"internalType": "uint256",
							"name": "tokenId",
							"type": "uint256"
						},
						{
							"internalType": "address payable",
							"name": "seller",
							"type": "address"
						},
						{
							"internalType": "address payable",
							"name": "owner",
							"type": "address"
						},
						{
							"internalType": "uint256",
							"name": "price",
							"type": "uint256"
						},
						{
							"internalType": "bool",
							"name": "sold",
							"type": "bool"
						}
					],
					"internalType": "struct NFTMarketplace.MarketItem[]",
					"name": "",
					"type": "tuple[]"
				}
			],
			"stateMutability": "view",
			"type": "function"
		},
		{
			"inputs": [],
			"name": "fetchMarketItems",
			"outputs": [
				{
					"components": [
						{
							"internalType": "uint256",
							"name": "tokenId",
							"type": "uint256"
						},
						{
							"internalType": "address payable",
							"name": "seller",
							"type": "address"
						},
						{
							"internalType": "address payable",
							"name": "owner",
							"type": "address"
						},
						{
							"internalType": "uint256",
							"name": "price",
							"type": "uint256"
						},
						{
							"internalType": "bool",
							"name": "sold",
							"type": "bool"
						}
					],
					"internalType": "struct NFTMarketplace.MarketItem[]",
					"name": "",
					"type": "tuple[]"
				}
			],
			"stateMutability": "view",
			"type": "function"
		},
		{
			"inputs": [],
			"name": "fetchMyNFTs",
			"outputs": [
				{
					"components": [
						{
							"internalType": "uint256",
							"name": "tokenId",
							"type": "uint256"
						},
						{
							"internalType": "address payable",
							"name": "seller",
							"type": "address"
						},
						{
							"internalType": "address payable",
							"name": "owner",
							"type": "address"
						},
						{
							"internalType": "uint256",
							"name": "price",
							"type": "uint256"
						},
						{
							"internalType": "bool",
							"name": "sold",
							"type": "bool"
						}
					],
					"internalType": "struct NFTMarketplace.MarketItem[]",
					"name": "",
					"type": "tuple[]"
				}
			],
			"stateMutability": "view",
			"type": "function"
		},
		{
			"inputs": [
				{
					"internalType": "uint256",
					"name": "tokenId",
					"type": "uint256"
				}
			],
			"name": "getApproved",
			"outputs": [
				{
					"internalType": "address",
					"name": "",
					"type": "address"
				}
			],
			"stateMutability": "view",
			"type": "function"
		},
		{
			"inputs": [],
			"name": "getListingPrice",
			"outputs": [
				{
					"internalType": "uint256",
					"name": "",
					"type": "uint256"
				}
			],
			"stateMutability": "view",
			"type": "function"
		},
		{
			"inputs": [
				{
					"internalType": "uint256",
					"name": "",
					"type": "uint256"
				}
			],
			"name": "idToMarketItem",
			"outputs": [
				{
					"internalType": "uint256",
					"name": "tokenId",
					"type": "uint256"
				},
				{
					"internalType": "address payable",
					"name": "seller",
					"type": "address"
				},
				{
					"internalType": "address payable",
					"name": "owner",
					"type": "address"
				},
				{
					"internalType": "uint256",
					"name": "price",
					"type": "uint256"
				},
				{
					"internalType": "bool",
					"name": "sold",
					"type": "bool"
				}
			],
			"stateMutability": "view",
			"type": "function"
		},
		{
			"inputs": [
				{
					"internalType": "address",
					"name": "owner",
					"type": "address"
				},
				{
					"internalType": "address",
					"name": "operator",
					"type": "address"
				}
			],
			"name": "isApprovedForAll",
			"outputs": [
				{
					"internalType": "bool",
					"name": "",
					"type": "bool"
				}
			],
			"stateMutability": "view",
			"type": "function"
		},
		{
			"inputs": [],
			"name": "name",
			"outputs": [
				{
					"internalType": "string",
					"name": "",
					"type": "string"
				}
			],
			"stateMutability": "view",
			"type": "function"
		},
		{
			"inputs": [
				{
					"internalType": "uint256",
					"name": "tokenId",
					"type": "uint256"
				}
			],
			"name": "ownerOf",
			"outputs": [
				{
					"internalType": "address",
					"name": "",
					"type": "address"
				}
			],
			"stateMutability": "view",
			"type": "function"
		},
		{
			"inputs": [
				{
					"internalType": "uint256",
					"name": "_tokenId",
					"type": "uint256"
				},
				{
					"internalType": "uint256",
					"name": "_price",
					"type": "uint256"
				}
			],
			"name": "resellToken",
			"outputs": [],
			"stateMutability": "payable",
			"type": "function"
		},
		{
			"inputs": [
				{
					"internalType": "address",
					"name": "from",
					"type": "address"
				},
				{
					"internalType": "address",
					"name": "to",
					"type": "address"
				},
				{
					"internalType": "uint256",
					"name": "tokenId",
					"type": "uint256"
				}
			],
			"name": "safeTransferFrom",
			"outputs": [],
			"stateMutability": "nonpayable",
			"type": "function"
		},
		{
			"inputs": [
				{
					"internalType": "address",
					"name": "from",
					"type": "address"
				},
				{
					"internalType": "address",
					"name": "to",
					"type": "address"
				},
				{
					"internalType": "uint256",
					"name": "tokenId",
					"type": "uint256"
				},
				{
					"internalType": "bytes",
					"name": "_data",
					"type": "bytes"
				}
			],
			"name": "safeTransferFrom",
			"outputs": [],
			"stateMutability": "nonpayable",
			"type": "function"
		},
		{
			"inputs": [
				{
					"internalType": "address",
					"name": "operator",
					"type": "address"
				},
				{
					"internalType": "bool",
					"name": "approved",
					"type": "bool"
				}
			],
			"name": "setApprovalForAll",
			"outputs": [],
			"stateMutability": "nonpayable",
			"type": "function"
		},
		{
			"inputs": [
				{
					"internalType": "bytes4",
					"name": "interfaceId",
					"type": "bytes4"
				}
			],
			"name": "supportsInterface",
			"outputs": [
				{
					"internalType": "bool",
					"name": "",
					"type": "bool"
				}
			],
			"stateMutability": "view",
			"type": "function"
		},
		{
			"inputs": [],
			"name": "symbol",
			"outputs": [
				{
					"internalType": "string",
					"name": "",
					"type": "string"
				}
			],
			"stateMutability": "view",
			"type": "function"
		},
		{
			"inputs": [
				{
					"internalType": "uint256",
					"name": "tokenId",
					"type": "uint256"
				}
			],
			"name": "tokenURI",
			"outputs": [
				{
					"internalType": "string",
					"name": "",
					"type": "string"
				}
			],
			"stateMutability": "view",
			"type": "function"
		},
		{
			"inputs": [
				{
					"internalType": "address",
					"name": "from",
					"type": "address"
				},
				{
					"internalType": "address",
					"name": "to",
					"type": "address"
				},
				{
					"internalType": "uint256",
					"name": "tokenId",
					"type": "uint256"
				}
			],
			"name": "transferFrom",
			"outputs": [],
			"stateMutability": "nonpayable",
			"type": "function"
		},
		{
			"inputs": [
				{
					"internalType": "uint256",
					"name": "_listingPrice",
					"type": "uint256"
				}
			],
			"name": "updateListingPrice",
			"outputs": [],
			"stateMutability": "payable",
			"type": "function"
		}
	],
	"bytecode": "0x60806040526658d15e176280006009553480156200001c57600080fd5b506040518060400160405280601081526020017f4d657461766572736520546f6b656e73000000000000000000000000000000008152506040518060400160405280600481526020017f4d455454000000000000000000000000000000000000000000000000000000008152508160009080519060200190620000a192919062000104565b508060019080519060200190620000ba92919062000104565b50505033600a60006101000a81548173ffffffffffffffffffffffffffffffffffffffff021916908373ffffffffffffffffffffffffffffffffffffffff16021790555062000219565b8280546200011290620001b4565b90600052602060002090601f01602090048101928262000136576000855562000182565b82601f106200015157805160ff191683800117855562000182565b8280016001018555821562000182579182015b828111156200018157825182559160200191906001019062000164565b5b50905062000191919062000195565b5090565b5b80821115620001b057600081600090555060010162000196565b5090565b60006002820490506001821680620001cd57607f821691505b60208210811415620001e457620001e3620001ea565b5b50919050565b7f4e487b7100000000000000000000000000000000000000000000000000000000600052602260045260246000fd5b61448d80620002296000396000f3fe6080604052600436106101355760003560e01c806370a08231116100ab578063b88d4fde1161006f578063b88d4fde14610420578063be9af53614610449578063c87b56dd14610465578063e219fc75146104a2578063e61a70c0146104be578063e985e9c5146104ff57610135565b806370a082311461034357806372b3b6201461038057806395d89b41146103b0578063a22cb465146103db578063ae677aa31461040457610135565b806312e85585116100fd57806312e8558514610233578063202e37401461025e57806323b872dd1461028957806342842e0e146102b257806345f8fa80146102db5780636352211e1461030657610135565b806301ffc9a71461013a57806306fdde0314610177578063081812fc146101a2578063095ea7b3146101df5780630f08efe014610208575b600080fd5b34801561014657600080fd5b50610161600480360381019061015c9190612f6b565b61053c565b60405161016e9190613654565b60405180910390f35b34801561018357600080fd5b5061018c61061e565b604051610199919061366f565b60405180910390f35b3480156101ae57600080fd5b506101c960048036038101906101c49190613011565b6106b0565b6040516101d69190613586565b60405180910390f35b3480156101eb57600080fd5b5061020660048036038101906102019190612f2f565b610735565b005b34801561021457600080fd5b5061021d61084d565b60405161022a9190613632565b60405180910390f35b34801561023f57600080fd5b50610248610b02565b6040516102559190613951565b60405180910390f35b34801561026a57600080fd5b50610273610b0c565b6040516102809190613632565b60405180910390f35b34801561029557600080fd5b506102b060048036038101906102ab9190612e29565b610e46565b005b3480156102be57600080fd5b506102d960048036038101906102d49190612e29565b610ea6565b005b3480156102e757600080fd5b506102f0610ec6565b6040516102fd9190613632565b60405180910390f35b34801561031257600080fd5b5061032d60048036038101906103289190613011565b611200565b60405161033a9190613586565b60405180910390f35b34801561034f57600080fd5b5061036a60048036038101906103659190612dc4565b6112b2565b6040516103779190613951565b60405180910390f35b61039a60048036038101906103959190612fbd565b61136a565b6040516103a79190613951565b60405180910390f35b3480156103bc57600080fd5b506103c56113ac565b6040516103d2919061366f565b60405180910390f35b3480156103e757600080fd5b5061040260048036038101906103fd9190612ef3565b61143e565b005b61041e60048036038101906104199190613011565b611454565b005b34801561042c57600080fd5b5061044760048036038101906104429190612e78565b6114ee565b005b610463600480360381019061045e9190613011565b611550565b005b34801561047157600080fd5b5061048c60048036038101906104879190613011565b611788565b604051610499919061366f565b60405180910390f35b6104bc60048036038101906104b7919061303a565b6118da565b005b3480156104ca57600080fd5b506104e560048036038101906104e09190613011565b611acf565b6040516104f695949392919061396c565b60405180910390f35b34801561050b57600080fd5b5061052660048036038101906105219190612ded565b611b52565b6040516105339190613654565b60405180910390f35b60007f80ac58cd000000000000000000000000000000000000000000000000000000007bffffffffffffffffffffffffffffffffffffffffffffffffffffffff1916827bffffffffffffffffffffffffffffffffffffffffffffffffffffffff1916148061060757507f5b5e139f000000000000000000000000000000000000000000000000000000007bffffffffffffffffffffffffffffffffffffffffffffffffffffffff1916827bffffffffffffffffffffffffffffffffffffffffffffffffffffffff1916145b80610617575061061682611be6565b5b9050919050565b60606000805461062d90613c45565b80601f016020809104026020016040519081016040528092919081815260200182805461065990613c45565b80156106a65780601f1061067b576101008083540402835291602001916106a6565b820191906000526020600020905b81548152906001019060200180831161068957829003601f168201915b5050505050905090565b60006106bb82611c50565b6106fa576040517f08c379a00000000000000000000000000000000000000000000000000000000081526004016106f190613871565b60405180910390fd5b6004600083815260200190815260200160002060009054906101000a900473ffffffffffffffffffffffffffffffffffffffff169050919050565b600061074082611200565b90508073ffffffffffffffffffffffffffffffffffffffff168373ffffffffffffffffffffffffffffffffffffffff1614156107b1576040517f08c379a00000000000000000000000000000000000000000000000000000000081526004016107a8906138d1565b60405180910390fd5b8073ffffffffffffffffffffffffffffffffffffffff166107d0611cbc565b73ffffffffffffffffffffffffffffffffffffffff1614806107ff57506107fe816107f9611cbc565b611b52565b5b61083e576040517f08c379a000000000000000000000000000000000000000000000000000000000815260040161083590613791565b60405180910390fd5b6108488383611cc4565b505050565b6060600061085b6007611d7d565b905060006108696008611d7d565b6108736007611d7d565b61087d9190613b49565b90506000808267ffffffffffffffff8111156108c2577f4e487b7100000000000000000000000000000000000000000000000000000000600052604160045260246000fd5b6040519080825280602002602001820160405280156108fb57816020015b6108e8612b8b565b8152602001906001900390816108e05790505b50905060005b84811015610af7573073ffffffffffffffffffffffffffffffffffffffff16600b60006001846109319190613ac2565b815260200190815260200160002060020160009054906101000a900473ffffffffffffffffffffffffffffffffffffffff1673ffffffffffffffffffffffffffffffffffffffff161415610ae457600060018261098e9190613ac2565b90506000600b60008381526020019081526020016000209050806040518060a0016040529081600082015481526020016001820160009054906101000a900473ffffffffffffffffffffffffffffffffffffffff1673ffffffffffffffffffffffffffffffffffffffff1673ffffffffffffffffffffffffffffffffffffffff1681526020016002820160009054906101000a900473ffffffffffffffffffffffffffffffffffffffff1673ffffffffffffffffffffffffffffffffffffffff1673ffffffffffffffffffffffffffffffffffffffff168152602001600382015481526020016004820160009054906101000a900460ff161515151581525050848681518110610ac7577f4e487b7100000000000000000000000000000000000000000000000000000000600052603260045260246000fd5b6020026020010181905250600185610adf9190613ac2565b945050505b8080610aef90613ca8565b915050610901565b508094505050505090565b6000600954905090565b60606000610b1a6007611d7d565b905060008060005b83811015610bc3573373ffffffffffffffffffffffffffffffffffffffff16600b6000600184610b529190613ac2565b815260200190815260200160002060020160009054906101000a900473ffffffffffffffffffffffffffffffffffffffff1673ffffffffffffffffffffffffffffffffffffffff161415610bb057600183610bad9190613ac2565b92505b8080610bbb90613ca8565b915050610b22565b5060008267ffffffffffffffff811115610c06577f4e487b7100000000000000000000000000000000000000000000000000000000600052604160045260246000fd5b604051908082528060200260200182016040528015610c3f57816020015b610c2c612b8b565b815260200190600190039081610c245790505b50905060005b84811015610e3b573373ffffffffffffffffffffffffffffffffffffffff16600b6000600184610c759190613ac2565b815260200190815260200160002060020160009054906101000a900473ffffffffffffffffffffffffffffffffffffffff1673ffffffffffffffffffffffffffffffffffffffff161415610e28576000600182610cd29190613ac2565b90506000600b60008381526020019081526020016000209050806040518060a0016040529081600082015481526020016001820160009054906101000a900473ffffffffffffffffffffffffffffffffffffffff1673ffffffffffffffffffffffffffffffffffffffff1673ffffffffffffffffffffffffffffffffffffffff1681526020016002820160009054906101000a900473ffffffffffffffffffffffffffffffffffffffff1673ffffffffffffffffffffffffffffffffffffffff1673ffffffffffffffffffffffffffffffffffffffff168152602001600382015481526020016004820160009054906101000a900460ff161515151581525050848681518110610e0b577f4e487b7100000000000000000000000000000000000000000000000000000000600052603260045260246000fd5b6020026020010181905250600185610e239190613ac2565b945050505b8080610e3390613ca8565b915050610c45565b508094505050505090565b610e57610e51611cbc565b82611d8b565b610e96576040517f08c379a0000000000000000000000000000000000000000000000000000000008152600401610e8d906138f1565b60405180910390fd5b610ea1838383611e69565b505050565b610ec1838383604051806020016040528060008152506114ee565b505050565b60606000610ed46007611d7d565b905060008060005b83811015610f7d573373ffffffffffffffffffffffffffffffffffffffff16600b6000600184610f0c9190613ac2565b815260200190815260200160002060010160009054906101000a900473ffffffffffffffffffffffffffffffffffffffff1673ffffffffffffffffffffffffffffffffffffffff161415610f6a57600183610f679190613ac2565b92505b8080610f7590613ca8565b915050610edc565b5060008267ffffffffffffffff811115610fc0577f4e487b7100000000000000000000000000000000000000000000000000000000600052604160045260246000fd5b604051908082528060200260200182016040528015610ff957816020015b610fe6612b8b565b815260200190600190039081610fde5790505b50905060005b848110156111f5573373ffffffffffffffffffffffffffffffffffffffff16600b600060018461102f9190613ac2565b815260200190815260200160002060010160009054906101000a900473ffffffffffffffffffffffffffffffffffffffff1673ffffffffffffffffffffffffffffffffffffffff1614156111e257600060018261108c9190613ac2565b90506000600b60008381526020019081526020016000209050806040518060a0016040529081600082015481526020016001820160009054906101000a900473ffffffffffffffffffffffffffffffffffffffff1673ffffffffffffffffffffffffffffffffffffffff1673ffffffffffffffffffffffffffffffffffffffff1681526020016002820160009054906101000a900473ffffffffffffffffffffffffffffffffffffffff1673ffffffffffffffffffffffffffffffffffffffff1673ffffffffffffffffffffffffffffffffffffffff168152602001600382015481526020016004820160009054906101000a900460ff1615151515815250508486815181106111c5577f4e487b7100000000000000000000000000000000000000000000000000000000600052603260045260246000fd5b60200260200101819052506001856111dd9190613ac2565b945050505b80806111ed90613ca8565b915050610fff565b508094505050505090565b6000806002600084815260200190815260200160002060009054906101000a900473ffffffffffffffffffffffffffffffffffffffff169050600073ffffffffffffffffffffffffffffffffffffffff168173ffffffffffffffffffffffffffffffffffffffff1614156112a9576040517f08c379a00000000000000000000000000000000000000000000000000000000081526004016112a0906137d1565b60405180910390fd5b80915050919050565b60008073ffffffffffffffffffffffffffffffffffffffff168273ffffffffffffffffffffffffffffffffffffffff161415611323576040517f08c379a000000000000000000000000000000000000000000000000000000000815260040161131a906137b1565b60405180910390fd5b600360008373ffffffffffffffffffffffffffffffffffffffff1673ffffffffffffffffffffffffffffffffffffffff168152602001908152602001600020549050919050565b600061137660076120d0565b60006113826007611d7d565b905061138e33826120e6565b61139881856122c0565b6113a28184612334565b8091505092915050565b6060600180546113bb90613c45565b80601f01602080910402602001604051908101604052809291908181526020018280546113e790613c45565b80156114345780601f1061140957610100808354040283529160200191611434565b820191906000526020600020905b81548152906001019060200180831161141757829003601f168201915b5050505050905090565b611450611449611cbc565b8383612537565b5050565b3373ffffffffffffffffffffffffffffffffffffffff16600a60009054906101000a900473ffffffffffffffffffffffffffffffffffffffff1673ffffffffffffffffffffffffffffffffffffffff16146114e4576040517f08c379a00000000000000000000000000000000000000000000000000000000081526004016114db90613771565b60405180910390fd5b8060098190555050565b6114ff6114f9611cbc565b83611d8b565b61153e576040517f08c379a0000000000000000000000000000000000000000000000000000000008152600401611535906138f1565b60405180910390fd5b61154a848484846126a4565b50505050565b6000600b60008381526020019081526020016000206003015490508034146115ad576040517f08c379a00000000000000000000000000000000000000000000000000000000081526004016115a4906138b1565b60405180910390fd5b6001600b600084815260200190815260200160002060040160006101000a81548160ff02191690831515021790555033600b600084815260200190815260200160002060020160006101000a81548173ffffffffffffffffffffffffffffffffffffffff021916908373ffffffffffffffffffffffffffffffffffffffff160217905550600b600083815260200190815260200160002060010160009054906101000a900473ffffffffffffffffffffffffffffffffffffffff1673ffffffffffffffffffffffffffffffffffffffff166108fc349081150290604051600060405180830381858888f193505050501580156116ad573d6000803e3d6000fd5b506116b860086120d0565b6116c3303384611e69565b600a60009054906101000a900473ffffffffffffffffffffffffffffffffffffffff1673ffffffffffffffffffffffffffffffffffffffff166108fc6009549081150290604051600060405180830381858888f1935050505015801561172d573d6000803e3d6000fd5b506000600b600084815260200190815260200160002060010160006101000a81548173ffffffffffffffffffffffffffffffffffffffff021916908373ffffffffffffffffffffffffffffffffffffffff1602179055505050565b606061179382611c50565b6117d2576040517f08c379a00000000000000000000000000000000000000000000000000000000081526004016117c990613851565b60405180910390fd5b60006006600084815260200190815260200160002080546117f290613c45565b80601f016020809104026020016040519081016040528092919081815260200182805461181e90613c45565b801561186b5780601f106118405761010080835404028352916020019161186b565b820191906000526020600020905b81548152906001019060200180831161184e57829003601f168201915b50505050509050600061187c612700565b90506000815114156118925781925050506118d5565b6000825111156118c75780826040516020016118af929190613562565b604051602081830303815290604052925050506118d5565b6118d084612717565b925050505b919050565b3373ffffffffffffffffffffffffffffffffffffffff16600b600084815260200190815260200160002060020160009054906101000a900473ffffffffffffffffffffffffffffffffffffffff1673ffffffffffffffffffffffffffffffffffffffff161461197e576040517f08c379a000000000000000000000000000000000000000000000000000000000815260040161197590613911565b60405180910390fd5b60095434146119c2576040517f08c379a00000000000000000000000000000000000000000000000000000000081526004016119b990613811565b60405180910390fd5b6000600b600084815260200190815260200160002060040160006101000a81548160ff02191690831515021790555080600b60008481526020019081526020016000206003018190555033600b600084815260200190815260200160002060010160006101000a81548173ffffffffffffffffffffffffffffffffffffffff021916908373ffffffffffffffffffffffffffffffffffffffff16021790555030600b600084815260200190815260200160002060020160006101000a81548173ffffffffffffffffffffffffffffffffffffffff021916908373ffffffffffffffffffffffffffffffffffffffff160217905550611ac060086127be565b611acb333084611e69565b5050565b600b6020528060005260406000206000915090508060000154908060010160009054906101000a900473ffffffffffffffffffffffffffffffffffffffff16908060020160009054906101000a900473ffffffffffffffffffffffffffffffffffffffff16908060030154908060040160009054906101000a900460ff16905085565b6000600560008473ffffffffffffffffffffffffffffffffffffffff1673ffffffffffffffffffffffffffffffffffffffff16815260200190815260200160002060008373ffffffffffffffffffffffffffffffffffffffff1673ffffffffffffffffffffffffffffffffffffffff16815260200190815260200160002060009054906101000a900460ff16905092915050565b60007f01ffc9a7000000000000000000000000000000000000000000000000000000007bffffffffffffffffffffffffffffffffffffffffffffffffffffffff1916827bffffffffffffffffffffffffffffffffffffffffffffffffffffffff1916149050919050565b60008073ffffffffffffffffffffffffffffffffffffffff166002600084815260200190815260200160002060009054906101000a900473ffffffffffffffffffffffffffffffffffffffff1673ffffffffffffffffffffffffffffffffffffffff1614159050919050565b600033905090565b816004600083815260200190815260200160002060006101000a81548173ffffffffffffffffffffffffffffffffffffffff021916908373ffffffffffffffffffffffffffffffffffffffff160217905550808273ffffffffffffffffffffffffffffffffffffffff16611d3783611200565b73ffffffffffffffffffffffffffffffffffffffff167f8c5be1e5ebec7d5bd14f71427d1e84f3dd0314c0f7b2291e5b200ac8c7c3b92560405160405180910390a45050565b600081600001549050919050565b6000611d9682611c50565b611dd5576040517f08c379a0000000000000000000000000000000000000000000000000000000008152600401611dcc90613751565b60405180910390fd5b6000611de083611200565b90508073ffffffffffffffffffffffffffffffffffffffff168473ffffffffffffffffffffffffffffffffffffffff161480611e4f57508373ffffffffffffffffffffffffffffffffffffffff16611e37846106b0565b73ffffffffffffffffffffffffffffffffffffffff16145b80611e605750611e5f8185611b52565b5b91505092915050565b8273ffffffffffffffffffffffffffffffffffffffff16611e8982611200565b73ffffffffffffffffffffffffffffffffffffffff1614611edf576040517f08c379a0000000000000000000000000000000000000000000000000000000008152600401611ed6906136d1565b60405180910390fd5b600073ffffffffffffffffffffffffffffffffffffffff168273ffffffffffffffffffffffffffffffffffffffff161415611f4f576040517f08c379a0000000000000000000000000000000000000000000000000000000008152600401611f4690613711565b60405180910390fd5b611f5a83838361281a565b611f65600082611cc4565b6001600360008573ffffffffffffffffffffffffffffffffffffffff1673ffffffffffffffffffffffffffffffffffffffff1681526020019081526020016000206000828254611fb59190613b49565b925050819055506001600360008473ffffffffffffffffffffffffffffffffffffffff1673ffffffffffffffffffffffffffffffffffffffff168152602001908152602001600020600082825461200c9190613ac2565b92505081905550816002600083815260200190815260200160002060006101000a81548173ffffffffffffffffffffffffffffffffffffffff021916908373ffffffffffffffffffffffffffffffffffffffff160217905550808273ffffffffffffffffffffffffffffffffffffffff168473ffffffffffffffffffffffffffffffffffffffff167fddf252ad1be2c89b69c2b068fc378daa952ba7f163c4a11628f55a4df523b3ef60405160405180910390a46120cb83838361281f565b505050565b6001816000016000828254019250508190555050565b600073ffffffffffffffffffffffffffffffffffffffff168273ffffffffffffffffffffffffffffffffffffffff161415612156576040517f08c379a000000000000000000000000000000000000000000000000000000000815260040161214d90613831565b60405180910390fd5b61215f81611c50565b1561219f576040517f08c379a0000000000000000000000000000000000000000000000000000000008152600401612196906136f1565b60405180910390fd5b6121ab6000838361281a565b6001600360008473ffffffffffffffffffffffffffffffffffffffff1673ffffffffffffffffffffffffffffffffffffffff16815260200190815260200160002060008282546121fb9190613ac2565b92505081905550816002600083815260200190815260200160002060006101000a81548173ffffffffffffffffffffffffffffffffffffffff021916908373ffffffffffffffffffffffffffffffffffffffff160217905550808273ffffffffffffffffffffffffffffffffffffffff16600073ffffffffffffffffffffffffffffffffffffffff167fddf252ad1be2c89b69c2b068fc378daa952ba7f163c4a11628f55a4df523b3ef60405160405180910390a46122bc6000838361281f565b5050565b6122c982611c50565b612308576040517f08c379a00000000000000000000000000000000000000000000000000000000081526004016122ff906137f1565b60405180910390fd5b8060066000848152602001908152602001600020908051906020019061232f929190612be8565b505050565b60008111612377576040517f08c379a000000000000000000000000000000000000000000000000000000000815260040161236e90613931565b60405180910390fd5b60095434146123bb576040517f08c379a00000000000000000000000000000000000000000000000000000000081526004016123b290613811565b60405180910390fd5b6040518060a001604052808381526020013373ffffffffffffffffffffffffffffffffffffffff1681526020013073ffffffffffffffffffffffffffffffffffffffff16815260200182815260200160001515815250600b60008481526020019081526020016000206000820151816000015560208201518160010160006101000a81548173ffffffffffffffffffffffffffffffffffffffff021916908373ffffffffffffffffffffffffffffffffffffffff16021790555060408201518160020160006101000a81548173ffffffffffffffffffffffffffffffffffffffff021916908373ffffffffffffffffffffffffffffffffffffffff1602179055506060820151816003015560808201518160040160006101000a81548160ff0219169083151502179055509050506124f4333084611e69565b817fb640004f1d14576d0c209e240cad0410e0d8c0c33a09375861fbadae2588a98d333084600060405161252b94939291906135a1565b60405180910390a25050565b8173ffffffffffffffffffffffffffffffffffffffff168373ffffffffffffffffffffffffffffffffffffffff1614156125a6576040517f08c379a000000000000000000000000000000000000000000000000000000000815260040161259d90613731565b60405180910390fd5b80600560008573ffffffffffffffffffffffffffffffffffffffff1673ffffffffffffffffffffffffffffffffffffffff16815260200190815260200160002060008473ffffffffffffffffffffffffffffffffffffffff1673ffffffffffffffffffffffffffffffffffffffff16815260200190815260200160002060006101000a81548160ff0219169083151502179055508173ffffffffffffffffffffffffffffffffffffffff168373ffffffffffffffffffffffffffffffffffffffff167f17307eab39ab6107e8899845ad3d59bd9653f200f220920489ca2b5937696c31836040516126979190613654565b60405180910390a3505050565b6126af848484611e69565b6126bb84848484612824565b6126fa576040517f08c379a00000000000000000000000000000000000000000000000000000000081526004016126f1906136b1565b60405180910390fd5b50505050565b606060405180602001604052806000815250905090565b606061272282611c50565b612761576040517f08c379a000000000000000000000000000000000000000000000000000000000815260040161275890613891565b60405180910390fd5b600061276b612700565b9050600081511161278b57604051806020016040528060008152506127b6565b80612795846129bb565b6040516020016127a6929190613562565b6040516020818303038152906040525b915050919050565b6000816000015490506000811161280a576040517f08c379a000000000000000000000000000000000000000000000000000000000815260040161280190613691565b60405180910390fd5b6001810382600001819055505050565b505050565b505050565b60006128458473ffffffffffffffffffffffffffffffffffffffff16612b68565b156129ae578373ffffffffffffffffffffffffffffffffffffffff1663150b7a0261286e611cbc565b8786866040518563ffffffff1660e01b815260040161289094939291906135e6565b602060405180830381600087803b1580156128aa57600080fd5b505af19250505080156128db57506040513d601f19601f820116820180604052508101906128d89190612f94565b60015b61295e573d806000811461290b576040519150601f19603f3d011682016040523d82523d6000602084013e612910565b606091505b50600081511415612956576040517f08c379a000000000000000000000000000000000000000000000000000000000815260040161294d906136b1565b60405180910390fd5b805181602001fd5b63150b7a0260e01b7bffffffffffffffffffffffffffffffffffffffffffffffffffffffff1916817bffffffffffffffffffffffffffffffffffffffffffffffffffffffff1916149150506129b3565b600190505b949350505050565b60606000821415612a03576040518060400160405280600181526020017f30000000000000000000000000000000000000000000000000000000000000008152509050612b63565b600082905060005b60008214612a35578080612a1e90613ca8565b915050600a82612a2e9190613b18565b9150612a0b565b60008167ffffffffffffffff811115612a77577f4e487b7100000000000000000000000000000000000000000000000000000000600052604160045260246000fd5b6040519080825280601f01601f191660200182016040528015612aa95781602001600182028036833780820191505090505b5090505b60008514612b5c57600182612ac29190613b49565b9150600a85612ad19190613cf1565b6030612add9190613ac2565b60f81b818381518110612b19577f4e487b7100000000000000000000000000000000000000000000000000000000600052603260045260246000fd5b60200101907effffffffffffffffffffffffffffffffffffffffffffffffffffffffffffff1916908160001a905350600a85612b559190613b18565b9450612aad565b8093505050505b919050565b6000808273ffffffffffffffffffffffffffffffffffffffff163b119050919050565b6040518060a0016040528060008152602001600073ffffffffffffffffffffffffffffffffffffffff168152602001600073ffffffffffffffffffffffffffffffffffffffff168152602001600081526020016000151581525090565b828054612bf490613c45565b90600052602060002090601f016020900481019282612c165760008555612c5d565b82601f10612c2f57805160ff1916838001178555612c5d565b82800160010185558215612c5d579182015b82811115612c5c578251825591602001919060010190612c41565b5b509050612c6a9190612c6e565b5090565b5b80821115612c87576000816000905550600101612c6f565b5090565b6000612c9e612c99846139e4565b6139bf565b905082815260208101848484011115612cb657600080fd5b612cc1848285613c03565b509392505050565b6000612cdc612cd784613a15565b6139bf565b905082815260208101848484011115612cf457600080fd5b612cff848285613c03565b509392505050565b600081359050612d16816143fb565b92915050565b600081359050612d2b81614412565b92915050565b600081359050612d4081614429565b92915050565b600081519050612d5581614429565b92915050565b600082601f830112612d6c57600080fd5b8135612d7c848260208601612c8b565b91505092915050565b600082601f830112612d9657600080fd5b8135612da6848260208601612cc9565b91505092915050565b600081359050612dbe81614440565b92915050565b600060208284031215612dd657600080fd5b6000612de484828501612d07565b91505092915050565b60008060408385031215612e0057600080fd5b6000612e0e85828601612d07565b9250506020612e1f85828601612d07565b9150509250929050565b600080600060608486031215612e3e57600080fd5b6000612e4c86828701612d07565b9350506020612e5d86828701612d07565b9250506040612e6e86828701612daf565b9150509250925092565b60008060008060808587031215612e8e57600080fd5b6000612e9c87828801612d07565b9450506020612ead87828801612d07565b9350506040612ebe87828801612daf565b925050606085013567ffffffffffffffff811115612edb57600080fd5b612ee787828801612d5b565b91505092959194509250565b60008060408385031215612f0657600080fd5b6000612f1485828601612d07565b9250506020612f2585828601612d1c565b9150509250929050565b60008060408385031215612f4257600080fd5b6000612f5085828601612d07565b9250506020612f6185828601612daf565b9150509250929050565b600060208284031215612f7d57600080fd5b6000612f8b84828501612d31565b91505092915050565b600060208284031215612fa657600080fd5b6000612fb484828501612d46565b91505092915050565b60008060408385031215612fd057600080fd5b600083013567ffffffffffffffff811115612fea57600080fd5b612ff685828601612d85565b925050602061300785828601612daf565b9150509250929050565b60006020828403121561302357600080fd5b600061303184828501612daf565b91505092915050565b6000806040838503121561304d57600080fd5b600061305b85828601612daf565b925050602061306c85828601612daf565b9150509250929050565b600061308283836134dc565b60a08301905092915050565b61309781613b8f565b82525050565b6130a681613b8f565b82525050565b6130b581613b7d565b82525050565b60006130c682613a56565b6130d08185613a84565b93506130db83613a46565b8060005b8381101561310c5781516130f38882613076565b97506130fe83613a77565b9250506001810190506130df565b5085935050505092915050565b61312281613ba1565b82525050565b61313181613ba1565b82525050565b600061314282613a61565b61314c8185613a95565b935061315c818560208601613c12565b61316581613dde565b840191505092915050565b600061317b82613a6c565b6131858185613aa6565b9350613195818560208601613c12565b61319e81613dde565b840191505092915050565b60006131b482613a6c565b6131be8185613ab7565b93506131ce818560208601613c12565b80840191505092915050565b60006131e7601b83613aa6565b91506131f282613def565b602082019050919050565b600061320a603283613aa6565b915061321582613e18565b604082019050919050565b600061322d602583613aa6565b915061323882613e67565b604082019050919050565b6000613250601c83613aa6565b915061325b82613eb6565b602082019050919050565b6000613273602483613aa6565b915061327e82613edf565b604082019050919050565b6000613296601983613aa6565b91506132a182613f2e565b602082019050919050565b60006132b9602c83613aa6565b91506132c482613f57565b604082019050919050565b60006132dc602783613aa6565b91506132e782613fa6565b604082019050919050565b60006132ff603883613aa6565b915061330a82613ff5565b604082019050919050565b6000613322602a83613aa6565b915061332d82614044565b604082019050919050565b6000613345602983613aa6565b915061335082614093565b604082019050919050565b6000613368602e83613aa6565b9150613373826140e2565b604082019050919050565b600061338b602483613aa6565b915061339682614131565b604082019050919050565b60006133ae602083613aa6565b91506133b982614180565b602082019050919050565b60006133d1603183613aa6565b91506133dc826141a9565b604082019050919050565b60006133f4602c83613aa6565b91506133ff826141f8565b604082019050919050565b6000613417602f83613aa6565b915061342282614247565b604082019050919050565b600061343a604283613aa6565b915061344582614296565b606082019050919050565b600061345d602183613aa6565b91506134688261430b565b604082019050919050565b6000613480603183613aa6565b915061348b8261435a565b604082019050919050565b60006134a3602083613aa6565b91506134ae826143a9565b602082019050919050565b60006134c6601e83613aa6565b91506134d1826143d2565b602082019050919050565b60a0820160008201516134f26000850182613544565b506020820151613505602085018261308e565b506040820151613518604085018261308e565b50606082015161352b6060850182613544565b50608082015161353e6080850182613119565b50505050565b61354d81613bf9565b82525050565b61355c81613bf9565b82525050565b600061356e82856131a9565b915061357a82846131a9565b91508190509392505050565b600060208201905061359b60008301846130ac565b92915050565b60006080820190506135b660008301876130ac565b6135c360208301866130ac565b6135d06040830185613553565b6135dd6060830184613128565b95945050505050565b60006080820190506135fb60008301876130ac565b61360860208301866130ac565b6136156040830185613553565b81810360608301526136278184613137565b905095945050505050565b6000602082019050818103600083015261364c81846130bb565b905092915050565b60006020820190506136696000830184613128565b92915050565b600060208201905081810360008301526136898184613170565b905092915050565b600060208201905081810360008301526136aa816131da565b9050919050565b600060208201905081810360008301526136ca816131fd565b9050919050565b600060208201905081810360008301526136ea81613220565b9050919050565b6000602082019050818103600083015261370a81613243565b9050919050565b6000602082019050818103600083015261372a81613266565b9050919050565b6000602082019050818103600083015261374a81613289565b9050919050565b6000602082019050818103600083015261376a816132ac565b9050919050565b6000602082019050818103600083015261378a816132cf565b9050919050565b600060208201905081810360008301526137aa816132f2565b9050919050565b600060208201905081810360008301526137ca81613315565b9050919050565b600060208201905081810360008301526137ea81613338565b9050919050565b6000602082019050818103600083015261380a8161335b565b9050919050565b6000602082019050818103600083015261382a8161337e565b9050919050565b6000602082019050818103600083015261384a816133a1565b9050919050565b6000602082019050818103600083015261386a816133c4565b9050919050565b6000602082019050818103600083015261388a816133e7565b9050919050565b600060208201905081810360008301526138aa8161340a565b9050919050565b600060208201905081810360008301526138ca8161342d565b9050919050565b600060208201905081810360008301526138ea81613450565b9050919050565b6000602082019050818103600083015261390a81613473565b9050919050565b6000602082019050818103600083015261392a81613496565b9050919050565b6000602082019050818103600083015261394a816134b9565b9050919050565b60006020820190506139666000830184613553565b92915050565b600060a0820190506139816000830188613553565b61398e602083018761309d565b61399b604083018661309d565b6139a86060830185613553565b6139b56080830184613128565b9695505050505050565b60006139c96139da565b90506139d58282613c77565b919050565b6000604051905090565b600067ffffffffffffffff8211156139ff576139fe613daf565b5b613a0882613dde565b9050602081019050919050565b600067ffffffffffffffff821115613a3057613a2f613daf565b5b613a3982613dde565b9050602081019050919050565b6000819050602082019050919050565b600081519050919050565b600081519050919050565b600081519050919050565b6000602082019050919050565b600082825260208201905092915050565b600082825260208201905092915050565b600082825260208201905092915050565b600081905092915050565b6000613acd82613bf9565b9150613ad883613bf9565b9250827fffffffffffffffffffffffffffffffffffffffffffffffffffffffffffffffff03821115613b0d57613b0c613d22565b5b828201905092915050565b6000613b2382613bf9565b9150613b2e83613bf9565b925082613b3e57613b3d613d51565b5b828204905092915050565b6000613b5482613bf9565b9150613b5f83613bf9565b925082821015613b7257613b71613d22565b5b828203905092915050565b6000613b8882613bd9565b9050919050565b6000613b9a82613bd9565b9050919050565b60008115159050919050565b60007fffffffff0000000000000000000000000000000000000000000000000000000082169050919050565b600073ffffffffffffffffffffffffffffffffffffffff82169050919050565b6000819050919050565b82818337600083830152505050565b60005b83811015613c30578082015181840152602081019050613c15565b83811115613c3f576000848401525b50505050565b60006002820490506001821680613c5d57607f821691505b60208210811415613c7157613c70613d80565b5b50919050565b613c8082613dde565b810181811067ffffffffffffffff82111715613c9f57613c9e613daf565b5b80604052505050565b6000613cb382613bf9565b91507fffffffffffffffffffffffffffffffffffffffffffffffffffffffffffffffff821415613ce657613ce5613d22565b5b600182019050919050565b6000613cfc82613bf9565b9150613d0783613bf9565b925082613d1757613d16613d51565b5b828206905092915050565b7f4e487b7100000000000000000000000000000000000000000000000000000000600052601160045260246000fd5b7f4e487b7100000000000000000000000000000000000000000000000000000000600052601260045260246000fd5b7f4e487b7100000000000000000000000000000000000000000000000000000000600052602260045260246000fd5b7f4e487b7100000000000000000000000000000000000000000000000000000000600052604160045260246000fd5b6000601f19601f8301169050919050565b7f436f756e7465723a2064656372656d656e74206f766572666c6f770000000000600082015250565b7f4552433732313a207472616e7366657220746f206e6f6e20455243373231526560008201527f63656976657220696d706c656d656e7465720000000000000000000000000000602082015250565b7f4552433732313a207472616e736665722066726f6d20696e636f72726563742060008201527f6f776e6572000000000000000000000000000000000000000000000000000000602082015250565b7f4552433732313a20746f6b656e20616c7265616479206d696e74656400000000600082015250565b7f4552433732313a207472616e7366657220746f20746865207a65726f2061646460008201527f7265737300000000000000000000000000000000000000000000000000000000602082015250565b7f4552433732313a20617070726f766520746f2063616c6c657200000000000000600082015250565b7f4552433732313a206f70657261746f7220717565727920666f72206e6f6e657860008201527f697374656e7420746f6b656e0000000000000000000000000000000000000000602082015250565b7f6f6e6c79206d61726b6574706c616365206f776e65722063616e20757064617460008201527f6520707269636500000000000000000000000000000000000000000000000000602082015250565b7f4552433732313a20617070726f76652063616c6c6572206973206e6f74206f7760008201527f6e6572206e6f7220617070726f76656420666f7220616c6c0000000000000000602082015250565b7f4552433732313a2062616c616e636520717565727920666f7220746865207a6560008201527f726f206164647265737300000000000000000000000000000000000000000000602082015250565b7f4552433732313a206f776e657220717565727920666f72206e6f6e657869737460008201527f656e7420746f6b656e0000000000000000000000000000000000000000000000602082015250565b7f45524337323155524953746f726167653a2055524920736574206f66206e6f6e60008201527f6578697374656e7420746f6b656e000000000000000000000000000000000000602082015250565b7f7072696365206d75737420626520657175616c20746f206c697374696e67207060008201527f7269636500000000000000000000000000000000000000000000000000000000602082015250565b7f4552433732313a206d696e7420746f20746865207a65726f2061646472657373600082015250565b7f45524337323155524953746f726167653a2055524920717565727920666f722060008201527f6e6f6e6578697374656e7420746f6b656e000000000000000000000000000000602082015250565b7f4552433732313a20617070726f76656420717565727920666f72206e6f6e657860008201527f697374656e7420746f6b656e0000000000000000000000000000000000000000602082015250565b7f4552433732314d657461646174613a2055524920717565727920666f72206e6f60008201527f6e6578697374656e7420746f6b656e0000000000000000000000000000000000602082015250565b7f706c656173652073656e6420657861637420726571756972656420707269636560008201527f20696e206f7264657220746f20636f6d706c657465207468652070757263686160208201527f7365000000000000000000000000000000000000000000000000000000000000604082015250565b7f4552433732313a20617070726f76616c20746f2063757272656e74206f776e6560008201527f7200000000000000000000000000000000000000000000000000000000000000602082015250565b7f4552433732313a207472616e736665722063616c6c6572206973206e6f74206f60008201527f776e6572206e6f7220617070726f766564000000000000000000000000000000602082015250565b7f4f6e6c79206974656d206f776e65722063616e20706572666f726d2074686973600082015250565b7f707269636572206d75737420626520677261746572207468616e206f6e650000600082015250565b61440481613b7d565b811461440f57600080fd5b50565b61441b81613ba1565b811461442657600080fd5b50565b61443281613bad565b811461443d57600080fd5b50565b61444981613bf9565b811461445457600080fd5b5056fea2646970667358221220eb38a5275cdf1167a331b840a095f41224220884425d82f7e4155db1179e41cc64736f6c63430008040033",
	"linkReferences": {},
	"deployedLinkReferences": {}
}